:100000009709010093890902970401009384C401B0
:10001000170901001309890117010200130181FE6C
:1000200017050100130505FE97050100938585FD61
:1000300013064000EF00800423A0A4001705010070
:10004000130545FD970501009385C5FC1306400087
:10005000EF00C0022320A90083A2040003230900AB
:1000600063585300130EA00023A0C9016F00C008FD
:10007000130EB00023A0C9016F000008130141FF57
:100080002324110023223101232091009309000031
:100090009304000093030500138E050063D4C4028B
:1000A0009392240033837200B382C20103A502003D
:1000B00083250300EF008002B389A9009384140014
:1000C0006FF0DFFD33850900832081008329410023
:1000D000832401001301C100678000009302000027
:1000E0006358B000B382A2009385F5FF6FF05FFF05
:0C00F00013850200678000006F00000014
:020000021000EC
:1000000003000000050000000100000009000000DE
:1000100001000000060000000200000003000000D4
:00000001FF
