:100000009709010093890902970401009384C401B0
:10001000170901001309890117010200130181FE6C
:1000200017050100130505FF97050100938585FE5F
:1000300013064000EF00800423A0A4001705010070
:10004000130545FC970501009385C5FB1306400089
:10005000EF00C0022320A90083A2040003230900AB
:1000600063585300130EA00023A0C9016F0080083D
:10007000130EB00023A0C9016F00C007130141FF98
:100080002324110023223101232091009309000031
:100090009304000093030500138E050063D2C4028D
:1000A00003A5030083250E00EF000003B389A90018
:1000B00093834300130E4E00938414006FF01FFED1
:1000C00033850900832081008329410083240100B6
:1000D0001301C10067800000930200006358B00064
:1000E000B382A2009385F5FF6FF05FFF13850200D6
:0800F000678000006F000000B2
:020000021000EC
:1000000003000000050000000100000009000000DE
:1000100001000000060000000200000003000000D4
:00000001FF
