:10000000170102001301010017050100130585FF08
:1000100093055000EF00C00C1301C1FF2320A10085
:1000200017050100130545FF93055000EF00400B35
:10003000130305008322010013014100635653009E
:10004000130510006F0080001305000097050100E4
:100050009385C5FDEF0080056F0000003305B502F4
:10006000678000009302000013030500130141FFA5
:100070002324110023225100232061001385020054
:1000800093850200EFF09FFD8320810083224100D1
:10009000032301001301C10063566500938212001F
:0C00A0006FF0DFFC138502006780000099
:1000AC00130101FE232E81001304010293070500A6
:1000BC002324B4FEA307F4FE832784FE0347F4FE37
:1000CC002380E700130000000324C1011301010287
:0400DC006780000039
:1000E000130101FD232611022324810213040103BD
:1000F000232EA4FC232CB4FC232604FE232404FE7C
:100100006F004005832784FE939727000327C4FDD3
:10011000B307F70083A60700832784FE9397270081
:100120000327C4FDB307F70083A7070093850700E3
:1001300013850600EFF09FF2130705008327C4FE26
:10014000B387E7002326F4FE832784FE93871700F6
:100150002324F4FE032784FE832784FDE344F7FA77
:100160000325C4FEEFF01FF0930705001385070079
:100170008320C10203248102130101036780000070
:020000021000EC
:100000000500000002000000FDFFFFFF07000000E8
:100010000600000006000000FFFFFFFF01000000D7
:080020000000000003000000D5
:00000001FF
