:100000001301C1FF232011009302000063D4920C5E
:10001000139322003303630103230300130313002C
:1000200013050B009305030013860400130181FFE1
:100030002320510023226100EF00807B83220100F6
:100040000323410013018100630405006F00C00019
:10005000130313006FF0DFFC6F0040006354930044
:100060006F00C0011303F0FF93932200B383630179
:1000700023A063009382F2FF6FF05FF91305030082
:100080001315150093850200130181FF23205100F1
:1000900023226100EF00407183220100032341000D
:1000A00013018100330525018323050063840300C8
:1000B0006F00C000130313006FF09FF693932200AC
:1000C000B383630123A06300938212006FF01FF4D7
:1000D0006FF01FF5832001001301410067800000CD
:1000E0009302000013030B0063D8920683230300DE
:1000F000638472006F0000011303430093821200B7
:100100006FF09FFE13850200130101FF23201100F1
:10011000232251002324610023267100EF004007B1
:1001200013152500330525018325410093952500EE
:10013000B3852501EF008002832001008322410066
:10014000032381008323C100130101011303430032
:10015000938212006FF05FF9678000009302000045
:10016000138E0400131E1E0063D2920203230500A7
:1001700083A305002320750023A0650033054501F6
:10018000B3854501938212006FF01FFE6780000067
:100190009302000013030B0063DC9200832303002F
:1001A0006308750013034300938212006FF0DFFEB3
:1001B0001385020067800000130141FF2324110012
:1001C0002322A1002320B10013050500930505009B
:1001D00093D51500EF00405D33052501832305000D
:1001E00033054501032E0500130181FF2322710011
:1001F0002320C101032581008325C10093D515006B
:10020000EF00805A33052501832E05003305450193
:10021000032F050083234100032E01000325C100A5
:10022000832581001301810063860E0C930F00006B
:1002300033054503B385450333052501B385250102
:1002400063C0F40313932F0033036500832203007C
:10025000B382D20323205300938F1F006FF05FFE01
:10026000930F000063C2F40313932F003303650060
:100270003303430183220300B382E20323205300AC
:10028000938F1F006FF01FFE930F000063C0F403F5
:1002900013932F003383650083220300B38272021D
:1002A00023205300938F1F006FF05FFE930F000019
:1002B00063C2F40313932F003383650033034301B8
:1002C00083220300B382C20323205300938F1F00B5
:1002D0006FF01FFE03254100EF00C00D0325010054
:1002E000EF00400D13051000832081001301C100B1
:1002F0006780000013050000832081001301C10006
:1003000067800000B382A5401383140013132300F9
:10031000B3826202130181FF2322510023201100C6
:1003200093050000EF004048130305003303230149
:100330001301C1FF232061009303000063C674060C
:1003400083228100139E2300330E6E0003250E00CE
:10035000330E4E0183250E00330E4E41330E5E00E8
:1003600003260E00330E4E0183260E00338FD50276
:100370002320EE011301C1FF23207100EF00403E56
:10038000832301001301410003230100139E230076
:10039000330E6E0083228100330E5E002320AE00F8
:1003A000938313006FF09FF9832041001301C10074
:1003B000678000003305450333052501930E0000D7
:1003C00063CAD407032F050033054501832F0500B9
:1003D0003305454193020000B383520103A3030098
:1003E00063040304336E6F0263160E0233EE6F0272
:1003F00063120E02334F6F02B3CF6F022320E50169
:10040000330545012320F5013305454193020000E2
:100410006F00C000938242006F004000B38352011E
:1004200003A303006FF0DFFB938E1E00130545004E
:100430006FF01FF9678000009302050013030500A9
:1004400093922200B3823201131313003303430348
:1004500033032301330343011303C3FF93830400D6
:100460009383F3FF130101FF2320A10023225100F6
:100470002324610023267100032501008323C1008A
:100480006384A30A9392230013932400B30253407E
:1004900003238100B302534003A6020023A00200FD
:1004A000B382420183A60200930E100023A0D20162
:1004B0009392230013932400B302534033834901E2
:1004C0001303C3FFB302534083AE02003306D603C7
:1004D000B382420183AE0200B386D60303238100B8
:1004E0000325030033034301832503000323810015
:1004F00033034301B382D502232053001301C1FF0C
:1005000023201100EF00C0258320010013014100CA
:10051000032381002320A3008323C1009383F3FFDF
:10052000232671006FF05FF5032501001301C1FF61
:1005300023201100EF0000060325410013152500BC
:1005400033053501EF00800B8320010013014100CA
:100550000325010013151500330545033305250157
:10056000330545011305C5FF1301C1FF2320110009
:10057000EF00C008832001001301410003250100A2
:1005800083224100032381008323C1001301010161
:100590006780000093020500939222001315150056
:1005A000330545033305250133035500930310003C
:1005B000032E03002320730033034301832E030023
:1005C00023207300B30345019383C3FF03AF0300EC
:1005D000330FDF0323A0E301B383430183AF0300A1
:1005E000B38FCF0323A0F301338332012320E30130
:1005F000330343012320F3016780000093820A0044
:1006000003A302008323050033054501032E0500E3
:100610003305454103A3020063020304B3EE630202
:10062000336F6E0263940E0263120F02B3C3630250
:10063000334E6E0223207500330545012320C5018A
:100640003305454193820A006F00C0009382420047
:100650006F00400003A302006FF0DFFB63427002F3
:100660006340C0039302F0FFB3835302330E5E0274
:1006700023207500330545012320C501330545417D
:10068000678000009304300017090100130989975F
:1006900097090100938909A1130A1000330A9A00EF
:1006A000131A2A00970A0100938ACA9B170B0100AC
:1006B000130B4B9D970B0100938B8B9DEFF05F9479
:1006C000EFF01FA2930200001383F4FF63DE6204C5
:1006D00063D8620413850200930503001315150007
:1006E00093951500130181FF2322510023206100FF
:1006F000EFF09FAC630C050003254100832501004A
:100700001315150093951500EFF0DFBF832241000C
:1007100003230100130181001303F3FF6FF05FFB5C
:10072000938212006FF05FFA938204009382F2FFCB
:100730001301C1FF232051008322010063CE020078
:1007400013850200EFF05FCF832201009382F2FF56
:10075000232051006FF05FFE130141006F00000085
:10076000130101FE232E8100130401022326A4FE9F
:100770002324B4FE2322C4FE2320D4FE0327C4FE78
:10078000832704FE3307F702832644FE832784FE73
:10079000B387F602B307F740138507000324C101AE
:0807A000130101026780000053
:1007A800130101FE232E8100130401022326A4FE57
:1007B8002324B4FE8327C4FE939747002326F4FE20
:1007C800832784FE939727000327C4FEB307F70007
:1007D8002326F4FE8327C4FE138507000324C101E2
:0807E80013010102678000000B
:1007F000130101FD2326810213040103232EA4FC0F
:10080000232CB4FC232AC4FC232604FE6F004003DF
:100810008327C4FD83A70700032784FD6316F70021
:10082000930700006F00C0028327C4FD9387470031
:10083000232EF4FC8327C4FE938717002326F4FE9F
:100840000327C4FE832744FDE344F7FC930710000D
:10085000138507000324C102130101036780000010
:020000021000EC
:1000000001000000010000000000000005000000E9
:1000100001000000010000000100000001000000DC
:1000200001000000000000000100000006000000C8
:1000300001000000010000000100000001000000BC
:1000400000000000010000000100000007000000A7
:10005000010000000100000001000000010000009C
:10006000020000000300000005000000070000007F
:100070000B0000000D000000110000000000000057
:10008000FFFFFFFFFFFFFFFFFFFFFFFF000000007C
:08009000010000000200000065
:04000003000006846F
:00000001FF
